{
  "contractName": "SubManager",
  "abi": [
    {
      "inputs": [],
      "stateMutability": "nonpayable",
      "type": "constructor"
    },
    {
      "anonymous": false,
      "inputs": [
        {
          "indexed": true,
          "internalType": "address",
          "name": "owner",
          "type": "address"
        },
        {
          "indexed": true,
          "internalType": "address",
          "name": "approved",
          "type": "address"
        },
        {
          "indexed": true,
          "internalType": "uint256",
          "name": "tokenId",
          "type": "uint256"
        }
      ],
      "name": "Approval",
      "type": "event"
    },
    {
      "anonymous": false,
      "inputs": [
        {
          "indexed": true,
          "internalType": "address",
          "name": "owner",
          "type": "address"
        },
        {
          "indexed": true,
          "internalType": "address",
          "name": "operator",
          "type": "address"
        },
        {
          "indexed": false,
          "internalType": "bool",
          "name": "approved",
          "type": "bool"
        }
      ],
      "name": "ApprovalForAll",
      "type": "event"
    },
    {
      "anonymous": false,
      "inputs": [
        {
          "indexed": true,
          "internalType": "address",
          "name": "recipient",
          "type": "address"
        },
        {
          "indexed": false,
          "internalType": "uint256",
          "name": "amount",
          "type": "uint256"
        },
        {
          "indexed": false,
          "internalType": "bool",
          "name": "isPlatform",
          "type": "bool"
        }
      ],
      "name": "FundsWithdrawn",
      "type": "event"
    },
    {
      "anonymous": false,
      "inputs": [
        {
          "indexed": true,
          "internalType": "address",
          "name": "previousOwner",
          "type": "address"
        },
        {
          "indexed": true,
          "internalType": "address",
          "name": "newOwner",
          "type": "address"
        }
      ],
      "name": "OwnershipTransferred",
      "type": "event"
    },
    {
      "anonymous": false,
      "inputs": [
        {
          "indexed": true,
          "internalType": "uint256",
          "name": "tokenId",
          "type": "uint256"
        },
        {
          "indexed": true,
          "internalType": "address",
          "name": "subscriber",
          "type": "address"
        },
        {
          "indexed": false,
          "internalType": "uint256",
          "name": "expiresAt",
          "type": "uint256"
        },
        {
          "indexed": false,
          "internalType": "string",
          "name": "ipfsHash",
          "type": "string"
        }
      ],
      "name": "SubscriptionPurchased",
      "type": "event"
    },
    {
      "anonymous": false,
      "inputs": [
        {
          "indexed": true,
          "internalType": "address",
          "name": "from",
          "type": "address"
        },
        {
          "indexed": true,
          "internalType": "address",
          "name": "to",
          "type": "address"
        },
        {
          "indexed": true,
          "internalType": "uint256",
          "name": "tokenId",
          "type": "uint256"
        }
      ],
      "name": "Transfer",
      "type": "event"
    },
    {
      "inputs": [
        {
          "internalType": "address",
          "name": "to",
          "type": "address"
        },
        {
          "internalType": "uint256",
          "name": "tokenId",
          "type": "uint256"
        }
      ],
      "name": "approve",
      "outputs": [],
      "stateMutability": "nonpayable",
      "type": "function"
    },
    {
      "inputs": [
        {
          "internalType": "address",
          "name": "owner",
          "type": "address"
        }
      ],
      "name": "balanceOf",
      "outputs": [
        {
          "internalType": "uint256",
          "name": "",
          "type": "uint256"
        }
      ],
      "stateMutability": "view",
      "type": "function",
      "constant": true
    },
    {
      "inputs": [
        {
          "internalType": "string",
          "name": "",
          "type": "string"
        }
      ],
      "name": "contentCreators",
      "outputs": [
        {
          "internalType": "address",
          "name": "",
          "type": "address"
        }
      ],
      "stateMutability": "view",
      "type": "function",
      "constant": true
    },
    {
      "inputs": [],
      "name": "creatorsPool",
      "outputs": [
        {
          "internalType": "uint256",
          "name": "",
          "type": "uint256"
        }
      ],
      "stateMutability": "view",
      "type": "function",
      "constant": true
    },
    {
      "inputs": [
        {
          "internalType": "uint256",
          "name": "tokenId",
          "type": "uint256"
        }
      ],
      "name": "getApproved",
      "outputs": [
        {
          "internalType": "address",
          "name": "",
          "type": "address"
        }
      ],
      "stateMutability": "view",
      "type": "function",
      "constant": true
    },
    {
      "inputs": [
        {
          "internalType": "address",
          "name": "owner",
          "type": "address"
        },
        {
          "internalType": "address",
          "name": "operator",
          "type": "address"
        }
      ],
      "name": "isApprovedForAll",
      "outputs": [
        {
          "internalType": "bool",
          "name": "",
          "type": "bool"
        }
      ],
      "stateMutability": "view",
      "type": "function",
      "constant": true
    },
    {
      "inputs": [],
      "name": "name",
      "outputs": [
        {
          "internalType": "string",
          "name": "",
          "type": "string"
        }
      ],
      "stateMutability": "view",
      "type": "function",
      "constant": true
    },
    {
      "inputs": [],
      "name": "owner",
      "outputs": [
        {
          "internalType": "address",
          "name": "",
          "type": "address"
        }
      ],
      "stateMutability": "view",
      "type": "function",
      "constant": true
    },
    {
      "inputs": [
        {
          "internalType": "uint256",
          "name": "tokenId",
          "type": "uint256"
        }
      ],
      "name": "ownerOf",
      "outputs": [
        {
          "internalType": "address",
          "name": "",
          "type": "address"
        }
      ],
      "stateMutability": "view",
      "type": "function",
      "constant": true
    },
    {
      "inputs": [],
      "name": "platformPool",
      "outputs": [
        {
          "internalType": "uint256",
          "name": "",
          "type": "uint256"
        }
      ],
      "stateMutability": "view",
      "type": "function",
      "constant": true
    },
    {
      "inputs": [],
      "name": "renounceOwnership",
      "outputs": [],
      "stateMutability": "nonpayable",
      "type": "function"
    },
    {
      "inputs": [
        {
          "internalType": "address",
          "name": "from",
          "type": "address"
        },
        {
          "internalType": "address",
          "name": "to",
          "type": "address"
        },
        {
          "internalType": "uint256",
          "name": "tokenId",
          "type": "uint256"
        }
      ],
      "name": "safeTransferFrom",
      "outputs": [],
      "stateMutability": "nonpayable",
      "type": "function"
    },
    {
      "inputs": [
        {
          "internalType": "address",
          "name": "from",
          "type": "address"
        },
        {
          "internalType": "address",
          "name": "to",
          "type": "address"
        },
        {
          "internalType": "uint256",
          "name": "tokenId",
          "type": "uint256"
        },
        {
          "internalType": "bytes",
          "name": "data",
          "type": "bytes"
        }
      ],
      "name": "safeTransferFrom",
      "outputs": [],
      "stateMutability": "nonpayable",
      "type": "function"
    },
    {
      "inputs": [
        {
          "internalType": "address",
          "name": "operator",
          "type": "address"
        },
        {
          "internalType": "bool",
          "name": "approved",
          "type": "bool"
        }
      ],
      "name": "setApprovalForAll",
      "outputs": [],
      "stateMutability": "nonpayable",
      "type": "function"
    },
    {
      "inputs": [],
      "name": "subscriptionPrice",
      "outputs": [
        {
          "internalType": "uint256",
          "name": "",
          "type": "uint256"
        }
      ],
      "stateMutability": "view",
      "type": "function",
      "constant": true
    },
    {
      "inputs": [
        {
          "internalType": "bytes4",
          "name": "interfaceId",
          "type": "bytes4"
        }
      ],
      "name": "supportsInterface",
      "outputs": [
        {
          "internalType": "bool",
          "name": "",
          "type": "bool"
        }
      ],
      "stateMutability": "view",
      "type": "function",
      "constant": true
    },
    {
      "inputs": [],
      "name": "symbol",
      "outputs": [
        {
          "internalType": "string",
          "name": "",
          "type": "string"
        }
      ],
      "stateMutability": "view",
      "type": "function",
      "constant": true
    },
    {
      "inputs": [
        {
          "internalType": "uint256",
          "name": "tokenId",
          "type": "uint256"
        }
      ],
      "name": "tokenURI",
      "outputs": [
        {
          "internalType": "string",
          "name": "",
          "type": "string"
        }
      ],
      "stateMutability": "view",
      "type": "function",
      "constant": true
    },
    {
      "inputs": [
        {
          "internalType": "address",
          "name": "from",
          "type": "address"
        },
        {
          "internalType": "address",
          "name": "to",
          "type": "address"
        },
        {
          "internalType": "uint256",
          "name": "tokenId",
          "type": "uint256"
        }
      ],
      "name": "transferFrom",
      "outputs": [],
      "stateMutability": "nonpayable",
      "type": "function"
    },
    {
      "inputs": [
        {
          "internalType": "address",
          "name": "newOwner",
          "type": "address"
        }
      ],
      "name": "transferOwnership",
      "outputs": [],
      "stateMutability": "nonpayable",
      "type": "function"
    },
    {
      "inputs": [
        {
          "internalType": "string",
          "name": "ipfsHash",
          "type": "string"
        }
      ],
      "name": "purchaseSubscription",
      "outputs": [],
      "stateMutability": "payable",
      "type": "function",
      "payable": true
    },
    {
      "inputs": [
        {
          "internalType": "string",
          "name": "ipfsHash",
          "type": "string"
        },
        {
          "internalType": "address",
          "name": "creator",
          "type": "address"
        }
      ],
      "name": "registerContent",
      "outputs": [],
      "stateMutability": "nonpayable",
      "type": "function"
    },
    {
      "inputs": [
        {
          "internalType": "uint256",
          "name": "tokenId",
          "type": "uint256"
        }
      ],
      "name": "isSubscriptionValid",
      "outputs": [
        {
          "internalType": "bool",
          "name": "",
          "type": "bool"
        }
      ],
      "stateMutability": "view",
      "type": "function",
      "constant": true
    },
    {
      "inputs": [
        {
          "internalType": "uint256",
          "name": "tokenId",
          "type": "uint256"
        }
      ],
      "name": "getContentIpfsHash",
      "outputs": [
        {
          "internalType": "string",
          "name": "",
          "type": "string"
        }
      ],
      "stateMutability": "view",
      "type": "function",
      "constant": true
    },
    {
      "inputs": [
        {
          "internalType": "string",
          "name": "ipfsHash",
          "type": "string"
        }
      ],
      "name": "withdrawCreatorFunds",
      "outputs": [],
      "stateMutability": "nonpayable",
      "type": "function"
    },
    {
      "inputs": [],
      "name": "withdrawPlatformFunds",
      "outputs": [],
      "stateMutability": "nonpayable",
      "type": "function"
    },
    {
      "inputs": [
        {
          "internalType": "uint256",
          "name": "newPrice",
          "type": "uint256"
        }
      ],
      "name": "setSubscriptionPrice",
      "outputs": [],
      "stateMutability": "nonpayable",
      "type": "function"
    }
  ],
  "bytecode": "0x6080604052662386f26fc100006008553480156200001c57600080fd5b506040518060400160405280601381526020017f436f6e74656e74537562736372697074696f6e000000000000000000000000008152506040518060400160405280600481526020017f435355420000000000000000000000000000000000000000000000000000000081525081600090816200009a91906200041d565b508060019081620000ac91906200041d565b505050620000cf620000c3620000d560201b60201c565b620000dd60201b60201c565b62000504565b600033905090565b6000600660009054906101000a900473ffffffffffffffffffffffffffffffffffffffff16905081600660006101000a81548173ffffffffffffffffffffffffffffffffffffffff021916908373ffffffffffffffffffffffffffffffffffffffff1602179055508173ffffffffffffffffffffffffffffffffffffffff168173ffffffffffffffffffffffffffffffffffffffff167f8be0079c531659141344cd1fd0a4f28419497f9722a3daafe3b4186f6b6457e060405160405180910390a35050565b600081519050919050565b7f4e487b7100000000000000000000000000000000000000000000000000000000600052604160045260246000fd5b7f4e487b7100000000000000000000000000000000000000000000000000000000600052602260045260246000fd5b600060028204905060018216806200022557607f821691505b6020821081036200023b576200023a620001dd565b5b50919050565b60008190508160005260206000209050919050565b60006020601f8301049050919050565b600082821b905092915050565b600060088302620002a57fffffffffffffffffffffffffffffffffffffffffffffffffffffffffffffffff8262000266565b620002b1868362000266565b95508019841693508086168417925050509392505050565b6000819050919050565b6000819050919050565b6000620002fe620002f8620002f284620002c9565b620002d3565b620002c9565b9050919050565b6000819050919050565b6200031a83620002dd565b62000332620003298262000305565b84845462000273565b825550505050565b600090565b620003496200033a565b620003568184846200030f565b505050565b5b818110156200037e57620003726000826200033f565b6001810190506200035c565b5050565b601f821115620003cd57620003978162000241565b620003a28462000256565b81016020851015620003b2578190505b620003ca620003c18562000256565b8301826200035b565b50505b505050565b600082821c905092915050565b6000620003f260001984600802620003d2565b1980831691505092915050565b60006200040d8383620003df565b9150826002028217905092915050565b6200042882620001a3565b67ffffffffffffffff811115620004445762000443620001ae565b5b6200045082546200020c565b6200045d82828562000382565b600060209050601f83116001811462000495576000841562000480578287015190505b6200048c8582620003ff565b865550620004fc565b601f198416620004a58662000241565b60005b82811015620004cf57848901518255600182019150602085019450602081019050620004a8565b86831015620004ef5784890151620004eb601f891682620003df565b8355505b6001600288020188555050505b505050505050565b613bc580620005146000396000f3fe60806040526004361061019c5760003560e01c806370a08231116100ec578063b88d4fde1161008a578063dab3630811610064578063dab36308146105c9578063e985e9c5146105f2578063e9862a411461062f578063f2fde38b1461065a5761019c565b8063b88d4fde14610538578063bdc8e54c14610561578063c87b56dd1461058c5761019c565b8063954689ca116100c6578063954689ca1461049057806395d89b41146104cd578063a22cb465146104f8578063b3043cf4146105215761019c565b806370a0823114610411578063715018a61461044e5780638da5cb5b146104655761019c565b80631a5ee7791161015957806323b872dd1161013357806323b872dd14610357578063335188061461038057806342842e0e146103ab5780636352211e146103d45761019c565b80631a5ee779146102d55780631d9b30c7146102fe578063221bda501461031a5761019c565b806301538b82146101a157806301ffc9a7146101ca57806306fdde0314610207578063081812fc14610232578063095ea7b31461026f57806313076d0514610298575b600080fd5b3480156101ad57600080fd5b506101c860048036038101906101c391906126cb565b610683565b005b3480156101d657600080fd5b506101f160048036038101906101ec919061277f565b610799565b6040516101fe91906127c7565b60405180910390f35b34801561021357600080fd5b5061021c61087b565b6040516102299190612861565b60405180910390f35b34801561023e57600080fd5b50610259600480360381019061025491906128b9565b61090d565b60405161026691906128f5565b60405180910390f35b34801561027b57600080fd5b5061029660048036038101906102919190612910565b610953565b005b3480156102a457600080fd5b506102bf60048036038101906102ba91906128b9565b610a6a565b6040516102cc9190612861565b60405180910390f35b3480156102e157600080fd5b506102fc60048036038101906102f791906128b9565b610b5a565b005b61031860048036038101906103139190612950565b610b6c565b005b34801561032657600080fd5b50610341600480360381019061033c9190612950565b610daa565b60405161034e91906128f5565b60405180910390f35b34801561036357600080fd5b5061037e60048036038101906103799190612999565b610df3565b005b34801561038c57600080fd5b50610395610e53565b6040516103a291906129fb565b60405180910390f35b3480156103b757600080fd5b506103d260048036038101906103cd9190612999565b610e59565b005b3480156103e057600080fd5b506103fb60048036038101906103f691906128b9565b610e79565b60405161040891906128f5565b60405180910390f35b34801561041d57600080fd5b5061043860048036038101906104339190612a16565b610eff565b60405161044591906129fb565b60405180910390f35b34801561045a57600080fd5b50610463610fb6565b005b34801561047157600080fd5b5061047a610fca565b60405161048791906128f5565b60405180910390f35b34801561049c57600080fd5b506104b760048036038101906104b291906128b9565b610ff4565b6040516104c491906127c7565b60405180910390f35b3480156104d957600080fd5b506104e261105f565b6040516104ef9190612861565b60405180910390f35b34801561050457600080fd5b5061051f600480360381019061051a9190612a6f565b6110f1565b005b34801561052d57600080fd5b50610536611107565b005b34801561054457600080fd5b5061055f600480360381019061055a9190612b50565b61122d565b005b34801561056d57600080fd5b5061057661128f565b60405161058391906129fb565b60405180910390f35b34801561059857600080fd5b506105b360048036038101906105ae91906128b9565b611295565b6040516105c09190612861565b60405180910390f35b3480156105d557600080fd5b506105f060048036038101906105eb9190612950565b6112fd565b005b3480156105fe57600080fd5b5061061960048036038101906106149190612bd3565b6114c0565b60405161062691906127c7565b60405180910390f35b34801561063b57600080fd5b50610644611554565b60405161065191906129fb565b60405180910390f35b34801561066657600080fd5b50610681600480360381019061067c9190612a16565b61155a565b005b61068b6115dd565b600073ffffffffffffffffffffffffffffffffffffffff16600c836040516106b39190612c4f565b908152602001604051809103902060009054906101000a900473ffffffffffffffffffffffffffffffffffffffff1673ffffffffffffffffffffffffffffffffffffffff1614610738576040517f08c379a000000000000000000000000000000000000000000000000000000000815260040161072f90612cb2565b60405180910390fd5b80600c836040516107499190612c4f565b908152602001604051809103902060006101000a81548173ffffffffffffffffffffffffffffffffffffffff021916908373ffffffffffffffffffffffffffffffffffffffff1602179055505050565b60007f80ac58cd000000000000000000000000000000000000000000000000000000007bffffffffffffffffffffffffffffffffffffffffffffffffffffffff1916827bffffffffffffffffffffffffffffffffffffffffffffffffffffffff1916148061086457507f5b5e139f000000000000000000000000000000000000000000000000000000007bffffffffffffffffffffffffffffffffffffffffffffffffffffffff1916827bffffffffffffffffffffffffffffffffffffffffffffffffffffffff1916145b8061087457506108738261165b565b5b9050919050565b60606000805461088a90612d01565b80601f01602080910402602001604051908101604052809291908181526020018280546108b690612d01565b80156109035780601f106108d857610100808354040283529160200191610903565b820191906000526020600020905b8154815290600101906020018083116108e657829003601f168201915b5050505050905090565b6000610918826116c5565b6004600083815260200190815260200160002060009054906101000a900473ffffffffffffffffffffffffffffffffffffffff169050919050565b600061095e82610e79565b90508073ffffffffffffffffffffffffffffffffffffffff168373ffffffffffffffffffffffffffffffffffffffff16036109ce576040517f08c379a00000000000000000000000000000000000000000000000000000000081526004016109c590612da4565b60405180910390fd5b8073ffffffffffffffffffffffffffffffffffffffff166109ed611710565b73ffffffffffffffffffffffffffffffffffffffff161480610a1c5750610a1b81610a16611710565b6114c0565b5b610a5b576040517f08c379a0000000000000000000000000000000000000000000000000000000008152600401610a5290612e36565b60405180910390fd5b610a658383611718565b505050565b6060610a7582610ff4565b610ab4576040517f08c379a0000000000000000000000000000000000000000000000000000000008152600401610aab90612ea2565b60405180910390fd5b600b60008381526020019081526020016000206001018054610ad590612d01565b80601f0160208091040260200160405190810160405280929190818152602001828054610b0190612d01565b8015610b4e5780601f10610b2357610100808354040283529160200191610b4e565b820191906000526020600020905b815481529060010190602001808311610b3157829003601f168201915b50505050509050919050565b610b626115dd565b8060088190555050565b600854341015610bb1576040517f08c379a0000000000000000000000000000000000000000000000000000000008152600401610ba890612f0e565b60405180910390fd5b600073ffffffffffffffffffffffffffffffffffffffff16600c82604051610bd99190612c4f565b908152602001604051809103902060009054906101000a900473ffffffffffffffffffffffffffffffffffffffff1673ffffffffffffffffffffffffffffffffffffffff1603610c5e576040517f08c379a0000000000000000000000000000000000000000000000000000000008152600401610c5590612f7a565b60405180910390fd5b60006064605a34610c6f9190612fc9565b610c79919061303a565b905060006064600a34610c8c9190612fc9565b610c96919061303a565b90508160096000828254610caa919061306b565b9250508190555080600a6000828254610cc3919061306b565b925050819055506000610cd660076117d1565b9050610ce260076117df565b610cec33826117f5565b604051806040016040528062278d0042610d06919061306b565b815260200185815250600b6000838152602001908152602001600020600082015181600001556020820151816001019081610d41919061324b565b509050503373ffffffffffffffffffffffffffffffffffffffff16817f9c4abfebc7fcb27eb74895802adaad7a22683a1d607058982323b009afa6eb2262278d0042610d8d919061306b565b87604051610d9c92919061331d565b60405180910390a350505050565b600c818051602081018201805184825260208301602085012081835280955050505050506000915054906101000a900473ffffffffffffffffffffffffffffffffffffffff1681565b610e04610dfe611710565b82611813565b610e43576040517f08c379a0000000000000000000000000000000000000000000000000000000008152600401610e3a906133bf565b60405180910390fd5b610e4e8383836118a8565b505050565b600a5481565b610e748383836040518060200160405280600081525061122d565b505050565b600080610e8583611ba1565b9050600073ffffffffffffffffffffffffffffffffffffffff168173ffffffffffffffffffffffffffffffffffffffff1603610ef6576040517f08c379a0000000000000000000000000000000000000000000000000000000008152600401610eed9061342b565b60405180910390fd5b80915050919050565b60008073ffffffffffffffffffffffffffffffffffffffff168273ffffffffffffffffffffffffffffffffffffffff1603610f6f576040517f08c379a0000000000000000000000000000000000000000000000000000000008152600401610f66906134bd565b60405180910390fd5b600360008373ffffffffffffffffffffffffffffffffffffffff1673ffffffffffffffffffffffffffffffffffffffff168152602001908152602001600020549050919050565b610fbe6115dd565b610fc86000611bde565b565b6000600660009054906101000a900473ffffffffffffffffffffffffffffffffffffffff16905090565b6000610fff82611ca4565b61103e576040517f08c379a000000000000000000000000000000000000000000000000000000000815260040161103590613529565b60405180910390fd5b42600b60008481526020019081526020016000206000015410159050919050565b60606001805461106e90612d01565b80601f016020809104026020016040519081016040528092919081815260200182805461109a90612d01565b80156110e75780601f106110bc576101008083540402835291602001916110e7565b820191906000526020600020905b8154815290600101906020018083116110ca57829003601f168201915b5050505050905090565b6111036110fc611710565b8383611ce5565b5050565b61110f6115dd565b6000600a5490506000600a819055506000611128610fca565b73ffffffffffffffffffffffffffffffffffffffff168260405161114b9061357a565b60006040518083038185875af1925050503d8060008114611188576040519150601f19603f3d011682016040523d82523d6000602084013e61118d565b606091505b50509050806111d1576040517f08c379a00000000000000000000000000000000000000000000000000000000081526004016111c8906135db565b60405180910390fd5b6111d9610fca565b73ffffffffffffffffffffffffffffffffffffffff167f1b7af42192901f68cf802e7304e6b3180f62c2a2c32062746bb50d6292a046748360016040516112219291906135fb565b60405180910390a25050565b61123e611238611710565b83611813565b61127d576040517f08c379a0000000000000000000000000000000000000000000000000000000008152600401611274906133bf565b60405180910390fd5b61128984848484611e51565b50505050565b60085481565b60606112a0826116c5565b60006112aa611ead565b905060008151116112ca57604051806020016040528060008152506112f5565b806112d484611ec4565b6040516020016112e5929190613624565b6040516020818303038152906040525b915050919050565b6000600c8260405161130f9190612c4f565b908152602001604051809103902060009054906101000a900473ffffffffffffffffffffffffffffffffffffffff1690503373ffffffffffffffffffffffffffffffffffffffff168173ffffffffffffffffffffffffffffffffffffffff16146113ae576040517f08c379a00000000000000000000000000000000000000000000000000000000081526004016113a590613694565b60405180910390fd5b60006009549050600060098190555060008273ffffffffffffffffffffffffffffffffffffffff16826040516113e39061357a565b60006040518083038185875af1925050503d8060008114611420576040519150601f19603f3d011682016040523d82523d6000602084013e611425565b606091505b5050905080611469576040517f08c379a0000000000000000000000000000000000000000000000000000000008152600401611460906135db565b60405180910390fd5b8273ffffffffffffffffffffffffffffffffffffffff167f1b7af42192901f68cf802e7304e6b3180f62c2a2c32062746bb50d6292a046748360006040516114b29291906135fb565b60405180910390a250505050565b6000600560008473ffffffffffffffffffffffffffffffffffffffff1673ffffffffffffffffffffffffffffffffffffffff16815260200190815260200160002060008373ffffffffffffffffffffffffffffffffffffffff1673ffffffffffffffffffffffffffffffffffffffff16815260200190815260200160002060009054906101000a900460ff16905092915050565b60095481565b6115626115dd565b600073ffffffffffffffffffffffffffffffffffffffff168173ffffffffffffffffffffffffffffffffffffffff16036115d1576040517f08c379a00000000000000000000000000000000000000000000000000000000081526004016115c890613726565b60405180910390fd5b6115da81611bde565b50565b6115e5611710565b73ffffffffffffffffffffffffffffffffffffffff16611603610fca565b73ffffffffffffffffffffffffffffffffffffffff1614611659576040517f08c379a000000000000000000000000000000000000000000000000000000000815260040161165090613792565b60405180910390fd5b565b60007f01ffc9a7000000000000000000000000000000000000000000000000000000007bffffffffffffffffffffffffffffffffffffffffffffffffffffffff1916827bffffffffffffffffffffffffffffffffffffffffffffffffffffffff1916149050919050565b6116ce81611ca4565b61170d576040517f08c379a00000000000000000000000000000000000000000000000000000000081526004016117049061342b565b60405180910390fd5b50565b600033905090565b816004600083815260200190815260200160002060006101000a81548173ffffffffffffffffffffffffffffffffffffffff021916908373ffffffffffffffffffffffffffffffffffffffff160217905550808273ffffffffffffffffffffffffffffffffffffffff1661178b83610e79565b73ffffffffffffffffffffffffffffffffffffffff167f8c5be1e5ebec7d5bd14f71427d1e84f3dd0314c0f7b2291e5b200ac8c7c3b92560405160405180910390a45050565b600081600001549050919050565b6001816000016000828254019250508190555050565b61180f828260405180602001604052806000815250611f92565b5050565b60008061181f83610e79565b90508073ffffffffffffffffffffffffffffffffffffffff168473ffffffffffffffffffffffffffffffffffffffff161480611861575061186081856114c0565b5b8061189f57508373ffffffffffffffffffffffffffffffffffffffff166118878461090d565b73ffffffffffffffffffffffffffffffffffffffff16145b91505092915050565b8273ffffffffffffffffffffffffffffffffffffffff166118c882610e79565b73ffffffffffffffffffffffffffffffffffffffff161461191e576040517f08c379a000000000000000000000000000000000000000000000000000000000815260040161191590613824565b60405180910390fd5b600073ffffffffffffffffffffffffffffffffffffffff168273ffffffffffffffffffffffffffffffffffffffff160361198d576040517f08c379a0000000000000000000000000000000000000000000000000000000008152600401611984906138b6565b60405180910390fd5b61199a8383836001611fed565b8273ffffffffffffffffffffffffffffffffffffffff166119ba82610e79565b73ffffffffffffffffffffffffffffffffffffffff1614611a10576040517f08c379a0000000000000000000000000000000000000000000000000000000008152600401611a0790613824565b60405180910390fd5b6004600082815260200190815260200160002060006101000a81549073ffffffffffffffffffffffffffffffffffffffff02191690556001600360008573ffffffffffffffffffffffffffffffffffffffff1673ffffffffffffffffffffffffffffffffffffffff168152602001908152602001600020600082825403925050819055506001600360008473ffffffffffffffffffffffffffffffffffffffff1673ffffffffffffffffffffffffffffffffffffffff16815260200190815260200160002060008282540192505081905550816002600083815260200190815260200160002060006101000a81548173ffffffffffffffffffffffffffffffffffffffff021916908373ffffffffffffffffffffffffffffffffffffffff160217905550808273ffffffffffffffffffffffffffffffffffffffff168473ffffffffffffffffffffffffffffffffffffffff167fddf252ad1be2c89b69c2b068fc378daa952ba7f163c4a11628f55a4df523b3ef60405160405180910390a4611b9c8383836001611ff3565b505050565b60006002600083815260200190815260200160002060009054906101000a900473ffffffffffffffffffffffffffffffffffffffff169050919050565b6000600660009054906101000a900473ffffffffffffffffffffffffffffffffffffffff16905081600660006101000a81548173ffffffffffffffffffffffffffffffffffffffff021916908373ffffffffffffffffffffffffffffffffffffffff1602179055508173ffffffffffffffffffffffffffffffffffffffff168173ffffffffffffffffffffffffffffffffffffffff167f8be0079c531659141344cd1fd0a4f28419497f9722a3daafe3b4186f6b6457e060405160405180910390a35050565b60008073ffffffffffffffffffffffffffffffffffffffff16611cc683611ba1565b73ffffffffffffffffffffffffffffffffffffffff1614159050919050565b8173ffffffffffffffffffffffffffffffffffffffff168373ffffffffffffffffffffffffffffffffffffffff1603611d53576040517f08c379a0000000000000000000000000000000000000000000000000000000008152600401611d4a90613922565b60405180910390fd5b80600560008573ffffffffffffffffffffffffffffffffffffffff1673ffffffffffffffffffffffffffffffffffffffff16815260200190815260200160002060008473ffffffffffffffffffffffffffffffffffffffff1673ffffffffffffffffffffffffffffffffffffffff16815260200190815260200160002060006101000a81548160ff0219169083151502179055508173ffffffffffffffffffffffffffffffffffffffff168373ffffffffffffffffffffffffffffffffffffffff167f17307eab39ab6107e8899845ad3d59bd9653f200f220920489ca2b5937696c3183604051611e4491906127c7565b60405180910390a3505050565b611e5c8484846118a8565b611e6884848484611ff9565b611ea7576040517f08c379a0000000000000000000000000000000000000000000000000000000008152600401611e9e906139b4565b60405180910390fd5b50505050565b606060405180602001604052806000815250905090565b606060006001611ed384612180565b01905060008167ffffffffffffffff811115611ef257611ef1612542565b5b6040519080825280601f01601f191660200182016040528015611f245781602001600182028036833780820191505090505b509050600082602001820190505b600115611f87578080600190039150507f3031323334353637383961626364656600000000000000000000000000000000600a86061a8153600a8581611f7b57611f7a61300b565b5b04945060008503611f32575b819350505050919050565b611f9c83836122d3565b611fa96000848484611ff9565b611fe8576040517f08c379a0000000000000000000000000000000000000000000000000000000008152600401611fdf906139b4565b60405180910390fd5b505050565b50505050565b50505050565b600061201a8473ffffffffffffffffffffffffffffffffffffffff166124f0565b15612173578373ffffffffffffffffffffffffffffffffffffffff1663150b7a02612043611710565b8786866040518563ffffffff1660e01b81526004016120659493929190613a29565b6020604051808303816000875af19250505080156120a157506040513d601f19601f8201168201806040525081019061209e9190613a8a565b60015b612123573d80600081146120d1576040519150601f19603f3d011682016040523d82523d6000602084013e6120d6565b606091505b50600081510361211b576040517f08c379a0000000000000000000000000000000000000000000000000000000008152600401612112906139b4565b60405180910390fd5b805181602001fd5b63150b7a0260e01b7bffffffffffffffffffffffffffffffffffffffffffffffffffffffff1916817bffffffffffffffffffffffffffffffffffffffffffffffffffffffff191614915050612178565b600190505b949350505050565b600080600090507a184f03e93ff9f4daa797ed6e38ed64bf6a1f01000000000000000083106121de577a184f03e93ff9f4daa797ed6e38ed64bf6a1f01000000000000000083816121d4576121d361300b565b5b0492506040810190505b6d04ee2d6d415b85acef8100000000831061221b576d04ee2d6d415b85acef810000000083816122115761221061300b565b5b0492506020810190505b662386f26fc10000831061224a57662386f26fc1000083816122405761223f61300b565b5b0492506010810190505b6305f5e1008310612273576305f5e10083816122695761226861300b565b5b0492506008810190505b612710831061229857612710838161228e5761228d61300b565b5b0492506004810190505b606483106122bb57606483816122b1576122b061300b565b5b0492506002810190505b600a83106122ca576001810190505b80915050919050565b600073ffffffffffffffffffffffffffffffffffffffff168273ffffffffffffffffffffffffffffffffffffffff1603612342576040517f08c379a000000000000000000000000000000000000000000000000000000000815260040161233990613b03565b60405180910390fd5b61234b81611ca4565b1561238b576040517f08c379a000000000000000000000000000000000000000000000000000000000815260040161238290613b6f565b60405180910390fd5b612399600083836001611fed565b6123a281611ca4565b156123e2576040517f08c379a00000000000000000000000000000000000000000000000000000000081526004016123d990613b6f565b60405180910390fd5b6001600360008473ffffffffffffffffffffffffffffffffffffffff1673ffffffffffffffffffffffffffffffffffffffff16815260200190815260200160002060008282540192505081905550816002600083815260200190815260200160002060006101000a81548173ffffffffffffffffffffffffffffffffffffffff021916908373ffffffffffffffffffffffffffffffffffffffff160217905550808273ffffffffffffffffffffffffffffffffffffffff16600073ffffffffffffffffffffffffffffffffffffffff167fddf252ad1be2c89b69c2b068fc378daa952ba7f163c4a11628f55a4df523b3ef60405160405180910390a46124ec600083836001611ff3565b5050565b6000808273ffffffffffffffffffffffffffffffffffffffff163b119050919050565b6000604051905090565b600080fd5b600080fd5b600080fd5b600080fd5b6000601f19601f8301169050919050565b7f4e487b7100000000000000000000000000000000000000000000000000000000600052604160045260246000fd5b61257a82612531565b810181811067ffffffffffffffff8211171561259957612598612542565b5b80604052505050565b60006125ac612513565b90506125b88282612571565b919050565b600067ffffffffffffffff8211156125d8576125d7612542565b5b6125e182612531565b9050602081019050919050565b82818337600083830152505050565b600061261061260b846125bd565b6125a2565b90508281526020810184848401111561262c5761262b61252c565b5b6126378482856125ee565b509392505050565b600082601f83011261265457612653612527565b5b81356126648482602086016125fd565b91505092915050565b600073ffffffffffffffffffffffffffffffffffffffff82169050919050565b60006126988261266d565b9050919050565b6126a88161268d565b81146126b357600080fd5b50565b6000813590506126c58161269f565b92915050565b600080604083850312156126e2576126e161251d565b5b600083013567ffffffffffffffff811115612700576126ff612522565b5b61270c8582860161263f565b925050602061271d858286016126b6565b9150509250929050565b60007fffffffff0000000000000000000000000000000000000000000000000000000082169050919050565b61275c81612727565b811461276757600080fd5b50565b60008135905061277981612753565b92915050565b6000602082840312156127955761279461251d565b5b60006127a38482850161276a565b91505092915050565b60008115159050919050565b6127c1816127ac565b82525050565b60006020820190506127dc60008301846127b8565b92915050565b600081519050919050565b600082825260208201905092915050565b60005b8381101561281c578082015181840152602081019050612801565b60008484015250505050565b6000612833826127e2565b61283d81856127ed565b935061284d8185602086016127fe565b61285681612531565b840191505092915050565b6000602082019050818103600083015261287b8184612828565b905092915050565b6000819050919050565b61289681612883565b81146128a157600080fd5b50565b6000813590506128b38161288d565b92915050565b6000602082840312156128cf576128ce61251d565b5b60006128dd848285016128a4565b91505092915050565b6128ef8161268d565b82525050565b600060208201905061290a60008301846128e6565b92915050565b600080604083850312156129275761292661251d565b5b6000612935858286016126b6565b9250506020612946858286016128a4565b9150509250929050565b6000602082840312156129665761296561251d565b5b600082013567ffffffffffffffff81111561298457612983612522565b5b6129908482850161263f565b91505092915050565b6000806000606084860312156129b2576129b161251d565b5b60006129c0868287016126b6565b93505060206129d1868287016126b6565b92505060406129e2868287016128a4565b9150509250925092565b6129f581612883565b82525050565b6000602082019050612a1060008301846129ec565b92915050565b600060208284031215612a2c57612a2b61251d565b5b6000612a3a848285016126b6565b91505092915050565b612a4c816127ac565b8114612a5757600080fd5b50565b600081359050612a6981612a43565b92915050565b60008060408385031215612a8657612a8561251d565b5b6000612a94858286016126b6565b9250506020612aa585828601612a5a565b9150509250929050565b600067ffffffffffffffff821115612aca57612ac9612542565b5b612ad382612531565b9050602081019050919050565b6000612af3612aee84612aaf565b6125a2565b905082815260208101848484011115612b0f57612b0e61252c565b5b612b1a8482856125ee565b509392505050565b600082601f830112612b3757612b36612527565b5b8135612b47848260208601612ae0565b91505092915050565b60008060008060808587031215612b6a57612b6961251d565b5b6000612b78878288016126b6565b9450506020612b89878288016126b6565b9350506040612b9a878288016128a4565b925050606085013567ffffffffffffffff811115612bbb57612bba612522565b5b612bc787828801612b22565b91505092959194509250565b60008060408385031215612bea57612be961251d565b5b6000612bf8858286016126b6565b9250506020612c09858286016126b6565b9150509250929050565b600081905092915050565b6000612c29826127e2565b612c338185612c13565b9350612c438185602086016127fe565b80840191505092915050565b6000612c5b8284612c1e565b915081905092915050565b7f436f6e74656e7420616c72656164792072656769737465726564000000000000600082015250565b6000612c9c601a836127ed565b9150612ca782612c66565b602082019050919050565b60006020820190508181036000830152612ccb81612c8f565b9050919050565b7f4e487b7100000000000000000000000000000000000000000000000000000000600052602260045260246000fd5b60006002820490506001821680612d1957607f821691505b602082108103612d2c57612d2b612cd2565b5b50919050565b7f4552433732313a20617070726f76616c20746f2063757272656e74206f776e6560008201527f7200000000000000000000000000000000000000000000000000000000000000602082015250565b6000612d8e6021836127ed565b9150612d9982612d32565b604082019050919050565b60006020820190508181036000830152612dbd81612d81565b9050919050565b7f4552433732313a20617070726f76652063616c6c6572206973206e6f7420746f60008201527f6b656e206f776e6572206f7220617070726f76656420666f7220616c6c000000602082015250565b6000612e20603d836127ed565b9150612e2b82612dc4565b604082019050919050565b60006020820190508181036000830152612e4f81612e13565b9050919050565b7f537562736372697074696f6e2065787069726564000000000000000000000000600082015250565b6000612e8c6014836127ed565b9150612e9782612e56565b602082019050919050565b60006020820190508181036000830152612ebb81612e7f565b9050919050565b7f496e73756666696369656e74207061796d656e74000000000000000000000000600082015250565b6000612ef86014836127ed565b9150612f0382612ec2565b602082019050919050565b60006020820190508181036000830152612f2781612eeb565b9050919050565b7f436f6e74656e74206e6f74207265676973746572656400000000000000000000600082015250565b6000612f646016836127ed565b9150612f6f82612f2e565b602082019050919050565b60006020820190508181036000830152612f9381612f57565b9050919050565b7f4e487b7100000000000000000000000000000000000000000000000000000000600052601160045260246000fd5b6000612fd482612883565b9150612fdf83612883565b9250828202612fed81612883565b9150828204841483151761300457613003612f9a565b5b5092915050565b7f4e487b7100000000000000000000000000000000000000000000000000000000600052601260045260246000fd5b600061304582612883565b915061305083612883565b9250826130605761305f61300b565b5b828204905092915050565b600061307682612883565b915061308183612883565b925082820190508082111561309957613098612f9a565b5b92915050565b60008190508160005260206000209050919050565b60006020601f8301049050919050565b600082821b905092915050565b6000600883026131017fffffffffffffffffffffffffffffffffffffffffffffffffffffffffffffffff826130c4565b61310b86836130c4565b95508019841693508086168417925050509392505050565b6000819050919050565b600061314861314361313e84612883565b613123565b612883565b9050919050565b6000819050919050565b6131628361312d565b61317661316e8261314f565b8484546130d1565b825550505050565b600090565b61318b61317e565b613196818484613159565b505050565b5b818110156131ba576131af600082613183565b60018101905061319c565b5050565b601f8211156131ff576131d08161309f565b6131d9846130b4565b810160208510156131e8578190505b6131fc6131f4856130b4565b83018261319b565b50505b505050565b600082821c905092915050565b600061322260001984600802613204565b1980831691505092915050565b600061323b8383613211565b9150826002028217905092915050565b613254826127e2565b67ffffffffffffffff81111561326d5761326c612542565b5b6132778254612d01565b6132828282856131be565b600060209050601f8311600181146132b557600084156132a3578287015190505b6132ad858261322f565b865550613315565b601f1984166132c38661309f565b60005b828110156132eb578489015182556001820191506020850194506020810190506132c6565b868310156133085784890151613304601f891682613211565b8355505b6001600288020188555050505b505050505050565b600060408201905061333260008301856129ec565b81810360208301526133448184612828565b90509392505050565b7f4552433732313a2063616c6c6572206973206e6f7420746f6b656e206f776e6560008201527f72206f7220617070726f76656400000000000000000000000000000000000000602082015250565b60006133a9602d836127ed565b91506133b48261334d565b604082019050919050565b600060208201905081810360008301526133d88161339c565b9050919050565b7f4552433732313a20696e76616c696420746f6b656e2049440000000000000000600082015250565b60006134156018836127ed565b9150613420826133df565b602082019050919050565b6000602082019050818103600083015261344481613408565b9050919050565b7f4552433732313a2061646472657373207a65726f206973206e6f74206120766160008201527f6c6964206f776e65720000000000000000000000000000000000000000000000602082015250565b60006134a76029836127ed565b91506134b28261344b565b604082019050919050565b600060208201905081810360008301526134d68161349a565b9050919050565b7f546f6b656e20646f6573206e6f74206578697374000000000000000000000000600082015250565b60006135136014836127ed565b915061351e826134dd565b602082019050919050565b6000602082019050818103600083015261354281613506565b9050919050565b600081905092915050565b50565b6000613564600083613549565b915061356f82613554565b600082019050919050565b600061358582613557565b9150819050919050565b7f4661696c656420746f2073656e64204574686572000000000000000000000000600082015250565b60006135c56014836127ed565b91506135d08261358f565b602082019050919050565b600060208201905081810360008301526135f4816135b8565b9050919050565b600060408201905061361060008301856129ec565b61361d60208301846127b8565b9392505050565b60006136308285612c1e565b915061363c8284612c1e565b91508190509392505050565b7f4e6f742074686520636f6e74656e742063726561746f72000000000000000000600082015250565b600061367e6017836127ed565b915061368982613648565b602082019050919050565b600060208201905081810360008301526136ad81613671565b9050919050565b7f4f776e61626c653a206e6577206f776e657220697320746865207a65726f206160008201527f6464726573730000000000000000000000000000000000000000000000000000602082015250565b60006137106026836127ed565b915061371b826136b4565b604082019050919050565b6000602082019050818103600083015261373f81613703565b9050919050565b7f4f776e61626c653a2063616c6c6572206973206e6f7420746865206f776e6572600082015250565b600061377c6020836127ed565b915061378782613746565b602082019050919050565b600060208201905081810360008301526137ab8161376f565b9050919050565b7f4552433732313a207472616e736665722066726f6d20696e636f72726563742060008201527f6f776e6572000000000000000000000000000000000000000000000000000000602082015250565b600061380e6025836127ed565b9150613819826137b2565b604082019050919050565b6000602082019050818103600083015261383d81613801565b9050919050565b7f4552433732313a207472616e7366657220746f20746865207a65726f2061646460008201527f7265737300000000000000000000000000000000000000000000000000000000602082015250565b60006138a06024836127ed565b91506138ab82613844565b604082019050919050565b600060208201905081810360008301526138cf81613893565b9050919050565b7f4552433732313a20617070726f766520746f2063616c6c657200000000000000600082015250565b600061390c6019836127ed565b9150613917826138d6565b602082019050919050565b6000602082019050818103600083015261393b816138ff565b9050919050565b7f4552433732313a207472616e7366657220746f206e6f6e20455243373231526560008201527f63656976657220696d706c656d656e7465720000000000000000000000000000602082015250565b600061399e6032836127ed565b91506139a982613942565b604082019050919050565b600060208201905081810360008301526139cd81613991565b9050919050565b600081519050919050565b600082825260208201905092915050565b60006139fb826139d4565b613a0581856139df565b9350613a158185602086016127fe565b613a1e81612531565b840191505092915050565b6000608082019050613a3e60008301876128e6565b613a4b60208301866128e6565b613a5860408301856129ec565b8181036060830152613a6a81846139f0565b905095945050505050565b600081519050613a8481612753565b92915050565b600060208284031215613aa057613a9f61251d565b5b6000613aae84828501613a75565b91505092915050565b7f4552433732313a206d696e7420746f20746865207a65726f2061646472657373600082015250565b6000613aed6020836127ed565b9150613af882613ab7565b602082019050919050565b60006020820190508181036000830152613b1c81613ae0565b9050919050565b7f4552433732313a20746f6b656e20616c7265616479206d696e74656400000000600082015250565b6000613b59601c836127ed565b9150613b6482613b23565b602082019050919050565b60006020820190508181036000830152613b8881613b4c565b905091905056fea264697066735822122081185f92ccf0c7f8147318d8a6b2e131dd65118f10f9350ae2af3eaab4642dbb64736f6c63430008130033",
  "immutableReferences": {},
  "source": "// SPDX-License-Identifier: MIT\r\npragma solidity ^0.8.1;\r\n\r\nimport \"@openzeppelin/contracts/token/ERC721/ERC721.sol\";\r\nimport \"@openzeppelin/contracts/access/Ownable.sol\";\r\nimport \"@openzeppelin/contracts/utils/Counters.sol\";\r\n\r\ncontract SubManager is ERC721, Ownable {\r\n    using Counters for Counters.Counter;\r\n    Counters.Counter private _tokenIdCounter;\r\n\r\n    struct Subscription {\r\n        uint256 expiresAt;\r\n        string ipfsHash;\r\n    }\r\n\r\n    // Subscription price (in wei)\r\n    uint256 public subscriptionPrice = 0.01 ether;\r\n    \r\n    // Royalty pools\r\n    uint256 public creatorsPool;\r\n    uint256 public platformPool;\r\n    \r\n    // Distribution ratios\r\n    uint256 private constant CREATORS_SHARE = 90;\r\n    uint256 private constant PLATFORM_SHARE = 10;\r\n    \r\n    // Token ID to Subscription mapping\r\n    mapping(uint256 => Subscription) private _subscriptions;\r\n    \r\n    // IPFS hash to creator address mapping\r\n    mapping(string => address) public contentCreators;\r\n\r\n    event SubscriptionPurchased(\r\n        uint256 indexed tokenId,\r\n        address indexed subscriber,\r\n        uint256 expiresAt,\r\n        string ipfsHash\r\n    );\r\n    \r\n    event FundsWithdrawn(\r\n        address indexed recipient,\r\n        uint256 amount,\r\n        bool isPlatform\r\n    );\r\n\r\n    constructor() ERC721(\"ContentSubscription\", \"CSUB\") {}\r\n\r\n    // Purchase a new subscription NFT\r\n    function purchaseSubscription(string memory ipfsHash) external payable {\r\n        require(msg.value >= subscriptionPrice, \"Insufficient payment\");\r\n        require(contentCreators[ipfsHash] != address(0), \"Content not registered\");\r\n        \r\n        // Distribute funds\r\n        uint256 creatorsShare = (msg.value * CREATORS_SHARE) / 100;\r\n        uint256 platformShare = (msg.value * PLATFORM_SHARE) / 100;\r\n        \r\n        creatorsPool += creatorsShare;\r\n        platformPool += platformShare;\r\n        \r\n        // Mint NFT\r\n        uint256 tokenId = _tokenIdCounter.current();\r\n        _tokenIdCounter.increment();\r\n        _safeMint(msg.sender, tokenId);\r\n        \r\n        // Set subscription expiration (1 month from now)\r\n        _subscriptions[tokenId] = Subscription({\r\n            expiresAt: block.timestamp + 30 days,\r\n            ipfsHash: ipfsHash\r\n        });\r\n        \r\n        emit SubscriptionPurchased(tokenId, msg.sender, block.timestamp + 30 days, ipfsHash);\r\n    }\r\n\r\n    // Register new content (only owner can do this)\r\n    function registerContent(string memory ipfsHash, address creator) external onlyOwner {\r\n        require(contentCreators[ipfsHash] == address(0), \"Content already registered\");\r\n        contentCreators[ipfsHash] = creator;\r\n    }\r\n\r\n    // Check if subscription is valid\r\n    function isSubscriptionValid(uint256 tokenId) public view returns (bool) {\r\n        require(_exists(tokenId), \"Token does not exist\");\r\n        return _subscriptions[tokenId].expiresAt >= block.timestamp;\r\n    }\r\n\r\n    // Get IPFS hash if subscription is valid\r\n    function getContentIpfsHash(uint256 tokenId) external view returns (string memory) {\r\n        require(isSubscriptionValid(tokenId), \"Subscription expired\");\r\n        return _subscriptions[tokenId].ipfsHash;\r\n    }\r\n\r\n    // Withdraw creator funds\r\n    function withdrawCreatorFunds(string memory ipfsHash) external {\r\n        address creator = contentCreators[ipfsHash];\r\n        require(creator == msg.sender, \"Not the content creator\");\r\n        \r\n        uint256 amount = creatorsPool;\r\n        creatorsPool = 0;\r\n        \r\n        (bool sent, ) = creator.call{value: amount}(\"\");\r\n        require(sent, \"Failed to send Ether\");\r\n        \r\n        emit FundsWithdrawn(creator, amount, false);\r\n    }\r\n\r\n    // Withdraw platform funds (owner only)\r\n    function withdrawPlatformFunds() external onlyOwner {\r\n        uint256 amount = platformPool;\r\n        platformPool = 0;\r\n        \r\n        (bool sent, ) = owner().call{value: amount}(\"\");\r\n        require(sent, \"Failed to send Ether\");\r\n        \r\n        emit FundsWithdrawn(owner(), amount, true);\r\n    }\r\n\r\n    // Update subscription price (owner only)\r\n    function setSubscriptionPrice(uint256 newPrice) external onlyOwner {\r\n        subscriptionPrice = newPrice;\r\n    }\r\n}",
  "sourcePath": "D:\\CCBC 24-25\\Sem2\\CCMP-606\\Code\\truffle\\contracts\\subManager.sol",
  "compiler": {
    "name": "solc",
    "version": "0.8.19+commit.7dd6d404.Emscripten.clang"
  },
  "schemaVersion": "3.4.16",
  "updatedAt": "2025-04-03T05:46:44.881Z",
  "networkType": "ethereum",
  "devdoc": {
    "events": {
      "Approval(address,address,uint256)": {
        "details": "Emitted when `owner` enables `approved` to manage the `tokenId` token."
      },
      "ApprovalForAll(address,address,bool)": {
        "details": "Emitted when `owner` enables or disables (`approved`) `operator` to manage all of its assets."
      },
      "Transfer(address,address,uint256)": {
        "details": "Emitted when `tokenId` token is transferred from `from` to `to`."
      }
    },
    "kind": "dev",
    "methods": {
      "approve(address,uint256)": {
        "details": "See {IERC721-approve}."
      },
      "balanceOf(address)": {
        "details": "See {IERC721-balanceOf}."
      },
      "getApproved(uint256)": {
        "details": "See {IERC721-getApproved}."
      },
      "isApprovedForAll(address,address)": {
        "details": "See {IERC721-isApprovedForAll}."
      },
      "name()": {
        "details": "See {IERC721Metadata-name}."
      },
      "owner()": {
        "details": "Returns the address of the current owner."
      },
      "ownerOf(uint256)": {
        "details": "See {IERC721-ownerOf}."
      },
      "renounceOwnership()": {
        "details": "Leaves the contract without owner. It will not be possible to call `onlyOwner` functions. Can only be called by the current owner. NOTE: Renouncing ownership will leave the contract without an owner, thereby disabling any functionality that is only available to the owner."
      },
      "safeTransferFrom(address,address,uint256)": {
        "details": "See {IERC721-safeTransferFrom}."
      },
      "safeTransferFrom(address,address,uint256,bytes)": {
        "details": "See {IERC721-safeTransferFrom}."
      },
      "setApprovalForAll(address,bool)": {
        "details": "See {IERC721-setApprovalForAll}."
      },
      "supportsInterface(bytes4)": {
        "details": "See {IERC165-supportsInterface}."
      },
      "symbol()": {
        "details": "See {IERC721Metadata-symbol}."
      },
      "tokenURI(uint256)": {
        "details": "See {IERC721Metadata-tokenURI}."
      },
      "transferFrom(address,address,uint256)": {
        "details": "See {IERC721-transferFrom}."
      },
      "transferOwnership(address)": {
        "details": "Transfers ownership of the contract to a new account (`newOwner`). Can only be called by the current owner."
      }
    },
    "version": 1
  },
  "userdoc": {
    "kind": "user",
    "methods": {},
    "version": 1
  }
}